{
  "_format": "hh-sol-artifact-1",
  "contractName": "OrderLedger",
  "sourceName": "contracts/OrderLedger.sol",
  "abi": [
    {
      "inputs": [],
      "stateMutability": "nonpayable",
      "type": "constructor"
    },
    {
      "anonymous": false,
      "inputs": [
        {
          "indexed": true,
          "internalType": "string",
          "name": "orderId",
          "type": "string"
        },
        {
          "indexed": false,
          "internalType": "enum OrderLedger.OrderStatus",
          "name": "status",
          "type": "uint8"
        },
        {
          "indexed": false,
          "internalType": "uint256",
          "name": "timestamp",
          "type": "uint256"
        }
      ],
      "name": "OrderCreated",
      "type": "event"
    },
    {
      "anonymous": false,
      "inputs": [
        {
          "indexed": true,
          "internalType": "string",
          "name": "orderId",
          "type": "string"
        },
        {
          "indexed": false,
          "internalType": "enum OrderLedger.OrderStatus",
          "name": "status",
          "type": "uint8"
        },
        {
          "indexed": false,
          "internalType": "uint256",
          "name": "timestamp",
          "type": "uint256"
        }
      ],
      "name": "OrderStatusUpdated",
      "type": "event"
    },
    {
      "inputs": [
        {
          "internalType": "string",
          "name": "_orderId",
          "type": "string"
        }
      ],
      "name": "createOrder",
      "outputs": [],
      "stateMutability": "nonpayable",
      "type": "function"
    },
    {
      "inputs": [
        {
          "internalType": "string",
          "name": "_orderId",
          "type": "string"
        }
      ],
      "name": "getOrder",
      "outputs": [
        {
          "internalType": "string",
          "name": "",
          "type": "string"
        },
        {
          "internalType": "enum OrderLedger.OrderStatus",
          "name": "",
          "type": "uint8"
        },
        {
          "internalType": "uint256",
          "name": "",
          "type": "uint256"
        }
      ],
      "stateMutability": "view",
      "type": "function"
    },
    {
      "inputs": [
        {
          "internalType": "string",
          "name": "",
          "type": "string"
        }
      ],
      "name": "orderExists",
      "outputs": [
        {
          "internalType": "bool",
          "name": "",
          "type": "bool"
        }
      ],
      "stateMutability": "view",
      "type": "function"
    },
    {
      "inputs": [
        {
          "internalType": "string",
          "name": "",
          "type": "string"
        }
      ],
      "name": "orders",
      "outputs": [
        {
          "internalType": "string",
          "name": "orderId",
          "type": "string"
        },
        {
          "internalType": "enum OrderLedger.OrderStatus",
          "name": "status",
          "type": "uint8"
        },
        {
          "internalType": "uint256",
          "name": "timestamp",
          "type": "uint256"
        }
      ],
      "stateMutability": "view",
      "type": "function"
    },
    {
      "inputs": [],
      "name": "owner",
      "outputs": [
        {
          "internalType": "address",
          "name": "",
          "type": "address"
        }
      ],
      "stateMutability": "view",
      "type": "function"
    },
    {
      "inputs": [
        {
          "internalType": "string",
          "name": "_orderId",
          "type": "string"
        },
        {
          "internalType": "enum OrderLedger.OrderStatus",
          "name": "_status",
          "type": "uint8"
        }
      ],
      "name": "updateOrderStatus",
      "outputs": [],
      "stateMutability": "nonpayable",
      "type": "function"
    }
  ],
  "bytecode": "0x6080604052348015600f57600080fd5b50336000806101000a81548173ffffffffffffffffffffffffffffffffffffffff021916908373ffffffffffffffffffffffffffffffffffffffff16021790555061105e8061005f6000396000f3fe608060405234801561001057600080fd5b50600436106100625760003560e01c806303b7c764146100675780631a94894714610083578063674f2948146100b5578063712ca0f8146100d15780638da5cb5b14610103578063a959d58514610121575b600080fd5b610081600480360381019061007c91906108bb565b610151565b005b61009d600480360381019061009891906108bb565b6102e6565b6040516100ac93929190610a13565b60405180910390f35b6100cf60048036038101906100ca9190610a76565b6103bb565b005b6100eb60048036038101906100e691906108bb565b610576565b6040516100fa93929190610a13565b60405180910390f35b61010b610707565b6040516101189190610b13565b60405180910390f35b61013b600480360381019061013691906108bb565b61072b565b6040516101489190610b49565b60405180910390f35b6002816040516101619190610ba0565b908152602001604051809103902060009054906101000a900460ff16156101bd576040517f08c379a00000000000000000000000000000000000000000000000000000000081526004016101b490610c03565b60405180910390fd5b6040518060600160405280828152602001600060028111156101e2576101e1610983565b5b8152602001428152506001826040516101fb9190610ba0565b9081526020016040518091039020600082015181600001908161021e9190610e2f565b5060208201518160010160006101000a81548160ff0219169083600281111561024a57610249610983565b5b021790555060408201518160020155905050600160028260405161026e9190610ba0565b908152602001604051809103902060006101000a81548160ff021916908315150217905550806040516102a19190610ba0565b60405180910390207f66646bdfc8aa9aa5fe942b62c7267cb5916b595324341a63b79942c617db5ffc6000426040516102db929190610f01565b60405180910390a250565b60018180516020810182018051848252602083016020850120818352809550505050505060009150905080600001805461031f90610c52565b80601f016020809104026020016040519081016040528092919081815260200182805461034b90610c52565b80156103985780601f1061036d57610100808354040283529160200191610398565b820191906000526020600020905b81548152906001019060200180831161037b57829003601f168201915b5050505050908060010160009054906101000a900460ff16908060020154905083565b60008054906101000a900473ffffffffffffffffffffffffffffffffffffffff1673ffffffffffffffffffffffffffffffffffffffff163373ffffffffffffffffffffffffffffffffffffffff1614610449576040517f08c379a000000000000000000000000000000000000000000000000000000000815260040161044090610f9c565b60405180910390fd5b6002826040516104599190610ba0565b908152602001604051809103902060009054906101000a900460ff166104b4576040517f08c379a00000000000000000000000000000000000000000000000000000000081526004016104ab90611008565b60405180910390fd5b806001836040516104c59190610ba0565b908152602001604051809103902060010160006101000a81548160ff021916908360028111156104f8576104f7610983565b5b02179055504260018360405161050e9190610ba0565b908152602001604051809103902060020181905550816040516105319190610ba0565b60405180910390207f2466ac315127033fff9683bd097545e563a8b71a413a530b78df237162cd4ad8824260405161056a929190610f01565b60405180910390a25050565b606060008060028460405161058b9190610ba0565b908152602001604051809103902060009054906101000a900460ff166105e6576040517f08c379a00000000000000000000000000000000000000000000000000000000081526004016105dd90611008565b60405180910390fd5b60006001856040516105f89190610ba0565b908152602001604051809103902060405180606001604052908160008201805461062190610c52565b80601f016020809104026020016040519081016040528092919081815260200182805461064d90610c52565b801561069a5780601f1061066f5761010080835404028352916020019161069a565b820191906000526020600020905b81548152906001019060200180831161067d57829003601f168201915b505050505081526020016001820160009054906101000a900460ff1660028111156106c8576106c7610983565b5b60028111156106da576106d9610983565b5b81526020016002820154815250509050806000015181602001518260400151935093509350509193909250565b60008054906101000a900473ffffffffffffffffffffffffffffffffffffffff1681565b6002818051602081018201805184825260208301602085012081835280955050505050506000915054906101000a900460ff1681565b6000604051905090565b600080fd5b600080fd5b600080fd5b600080fd5b6000601f19601f8301169050919050565b7f4e487b7100000000000000000000000000000000000000000000000000000000600052604160045260246000fd5b6107c88261077f565b810181811067ffffffffffffffff821117156107e7576107e6610790565b5b80604052505050565b60006107fa610761565b905061080682826107bf565b919050565b600067ffffffffffffffff82111561082657610825610790565b5b61082f8261077f565b9050602081019050919050565b82818337600083830152505050565b600061085e6108598461080b565b6107f0565b90508281526020810184848401111561087a5761087961077a565b5b61088584828561083c565b509392505050565b600082601f8301126108a2576108a1610775565b5b81356108b284826020860161084b565b91505092915050565b6000602082840312156108d1576108d061076b565b5b600082013567ffffffffffffffff8111156108ef576108ee610770565b5b6108fb8482850161088d565b91505092915050565b600081519050919050565b600082825260208201905092915050565b60005b8381101561093e578082015181840152602081019050610923565b60008484015250505050565b600061095582610904565b61095f818561090f565b935061096f818560208601610920565b6109788161077f565b840191505092915050565b7f4e487b7100000000000000000000000000000000000000000000000000000000600052602160045260246000fd5b600381106109c3576109c2610983565b5b50565b60008190506109d4826109b2565b919050565b60006109e4826109c6565b9050919050565b6109f4816109d9565b82525050565b6000819050919050565b610a0d816109fa565b82525050565b60006060820190508181036000830152610a2d818661094a565b9050610a3c60208301856109eb565b610a496040830184610a04565b949350505050565b60038110610a5e57600080fd5b50565b600081359050610a7081610a51565b92915050565b60008060408385031215610a8d57610a8c61076b565b5b600083013567ffffffffffffffff811115610aab57610aaa610770565b5b610ab78582860161088d565b9250506020610ac885828601610a61565b9150509250929050565b600073ffffffffffffffffffffffffffffffffffffffff82169050919050565b6000610afd82610ad2565b9050919050565b610b0d81610af2565b82525050565b6000602082019050610b286000830184610b04565b92915050565b60008115159050919050565b610b4381610b2e565b82525050565b6000602082019050610b5e6000830184610b3a565b92915050565b600081905092915050565b6000610b7a82610904565b610b848185610b64565b9350610b94818560208601610920565b80840191505092915050565b6000610bac8284610b6f565b915081905092915050565b7f4f7264657220616c726561647920657869737473000000000000000000000000600082015250565b6000610bed60148361090f565b9150610bf882610bb7565b602082019050919050565b60006020820190508181036000830152610c1c81610be0565b9050919050565b7f4e487b7100000000000000000000000000000000000000000000000000000000600052602260045260246000fd5b60006002820490506001821680610c6a57607f821691505b602082108103610c7d57610c7c610c23565b5b50919050565b60008190508160005260206000209050919050565b60006020601f8301049050919050565b600082821b905092915050565b600060088302610ce57fffffffffffffffffffffffffffffffffffffffffffffffffffffffffffffffff82610ca8565b610cef8683610ca8565b95508019841693508086168417925050509392505050565b6000819050919050565b6000610d2c610d27610d22846109fa565b610d07565b6109fa565b9050919050565b6000819050919050565b610d4683610d11565b610d5a610d5282610d33565b848454610cb5565b825550505050565b600090565b610d6f610d62565b610d7a818484610d3d565b505050565b5b81811015610d9e57610d93600082610d67565b600181019050610d80565b5050565b601f821115610de357610db481610c83565b610dbd84610c98565b81016020851015610dcc578190505b610de0610dd885610c98565b830182610d7f565b50505b505050565b600082821c905092915050565b6000610e0660001984600802610de8565b1980831691505092915050565b6000610e1f8383610df5565b9150826002028217905092915050565b610e3882610904565b67ffffffffffffffff811115610e5157610e50610790565b5b610e5b8254610c52565b610e66828285610da2565b600060209050601f831160018114610e995760008415610e87578287015190505b610e918582610e13565b865550610ef9565b601f198416610ea786610c83565b60005b82811015610ecf57848901518255600182019150602085019450602081019050610eaa565b86831015610eec5784890151610ee8601f891682610df5565b8355505b6001600288020188555050505b505050505050565b6000604082019050610f1660008301856109eb565b610f236020830184610a04565b9392505050565b7f4f6e6c79206f776e65722063616e20706572666f726d2074686973206163746960008201527f6f6e000000000000000000000000000000000000000000000000000000000000602082015250565b6000610f8660228361090f565b9150610f9182610f2a565b604082019050919050565b60006020820190508181036000830152610fb581610f79565b9050919050565b7f4f7264657220646f6573206e6f74206578697374000000000000000000000000600082015250565b6000610ff260148361090f565b9150610ffd82610fbc565b602082019050919050565b6000602082019050818103600083015261102181610fe5565b905091905056fea264697066735822122068dca8a9a3408658dbb6fa0c224ec73222d78ddc422fe93cb29eaa7bc4e983eb64736f6c634300081c0033",
  "linkReferences": {},
  "deployedLinkReferences": {}
}